{
    "contractName": "ExtraStorage",
    "abi": [
        {
            "inputs": [
                {
                    "internalType": "string",
                    "name": "_name",
                    "type": "string"
                },
                {
                    "internalType": "uint256",
                    "name": "_favoriteNumber",
                    "type": "uint256"
                }
            ],
            "name": "addPerson",
            "outputs": [],
            "stateMutability": "nonpayable",
            "type": "function"
        },
        {
            "inputs": [],
            "name": "getValue",
            "outputs": [
                {
                    "internalType": "uint256",
                    "name": "",
                    "type": "uint256"
                }
            ],
            "stateMutability": "view",
            "type": "function"
        },
        {
            "inputs": [
                {
                    "internalType": "string",
                    "name": "",
                    "type": "string"
                }
            ],
            "name": "nameToFavoriteNumber",
            "outputs": [
                {
                    "internalType": "uint256",
                    "name": "",
                    "type": "uint256"
                }
            ],
            "stateMutability": "view",
            "type": "function"
        },
        {
            "inputs": [
                {
                    "internalType": "uint256",
                    "name": "",
                    "type": "uint256"
                }
            ],
            "name": "people",
            "outputs": [
                {
                    "internalType": "uint256",
                    "name": "favoriteNumber",
                    "type": "uint256"
                },
                {
                    "internalType": "string",
                    "name": "name",
                    "type": "string"
                }
            ],
            "stateMutability": "view",
            "type": "function"
        },
        {
            "inputs": [
                {
                    "internalType": "uint256",
                    "name": "_favoriteNumber",
                    "type": "uint256"
                }
            ],
            "name": "store",
            "outputs": [],
            "stateMutability": "nonpayable",
            "type": "function"
        }
    ],
    "bytecode": "608060405234801561001057600080fd5b506105be806100206000396000f3fe608060405234801561001057600080fd5b50600436106100575760003560e01c8063209652551461005c5780636057361d146100735780636f760f41146100885780638bab8dd51461009b5780639e7a13ad146100c6575b600080fd5b6000545b6040519081526020015b60405180910390f35b61008661008136600461025a565b6100e7565b005b610086610096366004610273565b6100f8565b6100606100a9366004610301565b805160208183018101805160018252928201919093012091525481565b6100d96100d436600461025a565b6101a2565b60405161006a9291906103b2565b6100f2816005610408565b60005550565b6002604051806040016040528083815260200185858080601f016020809104026020016040519081016040528093929190818152602001838380828437600092018290525093909452505083546001818101865594825260209182902084516002909202019081559083015192939092908301915061017790826104b8565b505050806001848460405161018d929190610578565b90815260405190819003602001902055505050565b600281815481106101b257600080fd5b600091825260209091206002909102018054600182018054919350906101d79061042f565b80601f01602080910402602001604051908101604052809291908181526020018280546102039061042f565b80156102505780601f1061022557610100808354040283529160200191610250565b820191906000526020600020905b81548152906001019060200180831161023357829003601f168201915b5050505050905082565b60006020828403121561026c57600080fd5b5035919050565b60008060006040848603121561028857600080fd5b833567ffffffffffffffff808211156102a057600080fd5b818601915086601f8301126102b457600080fd5b8135818111156102c357600080fd5b8760208285010111156102d557600080fd5b6020928301989097509590910135949350505050565b634e487b7160e01b600052604160045260246000fd5b60006020828403121561031357600080fd5b813567ffffffffffffffff8082111561032b57600080fd5b818401915084601f83011261033f57600080fd5b813581811115610351576103516102eb565b604051601f8201601f19908116603f01168101908382118183101715610379576103796102eb565b8160405282815287602084870101111561039257600080fd5b826020860160208301376000928101602001929092525095945050505050565b82815260006020604081840152835180604085015260005b818110156103e6578581018301518582016060015282016103ca565b506000606082860101526060601f19601f830116850101925050509392505050565b8082018082111561042957634e487b7160e01b600052601160045260246000fd5b92915050565b600181811c9082168061044357607f821691505b60208210810361046357634e487b7160e01b600052602260045260246000fd5b50919050565b601f8211156104b357600081815260208120601f850160051c810160208610156104905750805b601f850160051c820191505b818110156104af5782815560010161049c565b5050505b505050565b815167ffffffffffffffff8111156104d2576104d26102eb565b6104e6816104e0845461042f565b84610469565b602080601f83116001811461051b57600084156105035750858301515b600019600386901b1c1916600185901b1785556104af565b600085815260208120601f198616915b8281101561054a5788860151825594840194600190910190840161052b565b50858210156105685787850151600019600388901b60f8161c191681555b5050505050600190811b01905550565b818382376000910190815291905056fea26469706673582212202e764fe2b1866f34b352ee14932c5047f15a1fb6022c6e388e54fe83f1730a6e64736f6c63430008130033",
    "sourcePath": "d:/Projects/solidity/simple-storage/contracts/ExtraStorage.sol",
    "compiler": {
        "name": "solc",
        "version": "0.8.19+commit.7dd6d404"
    },
    "functionHashes": {
        "addPerson(string,uint256)": "6f760f41",
        "getValue()": "20965255",
        "nameToFavoriteNumber(string)": "8bab8dd5",
        "people(uint256)": "9e7a13ad",
        "store(uint256)": "6057361d"
    },
    "gasEstimates": {
        "creation": {
            "codeDepositCost": "294000",
            "executionCost": "331",
            "totalCost": "294331"
        },
        "external": {
            "addPerson(string,uint256)": "infinite",
            "getValue()": "2248",
            "nameToFavoriteNumber(string)": "infinite",
            "people(uint256)": "infinite",
            "store(uint256)": "22401"
        }
    }
}