{
    "contractName": "SimpleStorage",
    "abi": [
        {
            "inputs": [
                {
                    "internalType": "string",
                    "name": "_name",
                    "type": "string"
                },
                {
                    "internalType": "uint256",
                    "name": "_favoriteNumber",
                    "type": "uint256"
                }
            ],
            "name": "addPerson",
            "outputs": [],
            "stateMutability": "nonpayable",
            "type": "function"
        },
        {
            "inputs": [],
            "name": "getValue",
            "outputs": [
                {
                    "internalType": "uint256",
                    "name": "",
                    "type": "uint256"
                }
            ],
            "stateMutability": "view",
            "type": "function"
        },
        {
            "inputs": [
                {
                    "internalType": "string",
                    "name": "",
                    "type": "string"
                }
            ],
            "name": "nameToFavoriteNumber",
            "outputs": [
                {
                    "internalType": "uint256",
                    "name": "",
                    "type": "uint256"
                }
            ],
            "stateMutability": "view",
            "type": "function"
        },
        {
            "inputs": [
                {
                    "internalType": "uint256",
                    "name": "",
                    "type": "uint256"
                }
            ],
            "name": "people",
            "outputs": [
                {
                    "internalType": "uint256",
                    "name": "favoriteNumber",
                    "type": "uint256"
                },
                {
                    "internalType": "string",
                    "name": "name",
                    "type": "string"
                }
            ],
            "stateMutability": "view",
            "type": "function"
        },
        {
            "inputs": [
                {
                    "internalType": "uint256",
                    "name": "_favoriteNumber",
                    "type": "uint256"
                }
            ],
            "name": "store",
            "outputs": [],
            "stateMutability": "nonpayable",
            "type": "function"
        }
    ],
    "bytecode": "608060405234801561001057600080fd5b50610586806100206000396000f3fe608060405234801561001057600080fd5b50600436106100575760003560e01c8063209652551461005c5780636057361d146100735780636f760f41146100885780638bab8dd51461009b5780639e7a13ad146100c6575b600080fd5b6000545b6040519081526020015b60405180910390f35b610086610081366004610249565b600055565b005b610086610096366004610262565b6100e7565b6100606100a93660046102f0565b805160208183018101805160018252928201919093012091525481565b6100d96100d4366004610249565b610191565b60405161006a9291906103a1565b6002604051806040016040528083815260200185858080601f01602080910402602001604051908101604052809392919081815260200183838082843760009201829052509390945250508354600181810186559482526020918290208451600290920201908155908301519293909290830191506101669082610480565b505050806001848460405161017c929190610540565b90815260405190819003602001902055505050565b600281815481106101a157600080fd5b600091825260209091206002909102018054600182018054919350906101c6906103f7565b80601f01602080910402602001604051908101604052809291908181526020018280546101f2906103f7565b801561023f5780601f106102145761010080835404028352916020019161023f565b820191906000526020600020905b81548152906001019060200180831161022257829003601f168201915b5050505050905082565b60006020828403121561025b57600080fd5b5035919050565b60008060006040848603121561027757600080fd5b833567ffffffffffffffff8082111561028f57600080fd5b818601915086601f8301126102a357600080fd5b8135818111156102b257600080fd5b8760208285010111156102c457600080fd5b6020928301989097509590910135949350505050565b634e487b7160e01b600052604160045260246000fd5b60006020828403121561030257600080fd5b813567ffffffffffffffff8082111561031a57600080fd5b818401915084601f83011261032e57600080fd5b813581811115610340576103406102da565b604051601f8201601f19908116603f01168101908382118183101715610368576103686102da565b8160405282815287602084870101111561038157600080fd5b826020860160208301376000928101602001929092525095945050505050565b82815260006020604081840152835180604085015260005b818110156103d5578581018301518582016060015282016103b9565b506000606082860101526060601f19601f830116850101925050509392505050565b600181811c9082168061040b57607f821691505b60208210810361042b57634e487b7160e01b600052602260045260246000fd5b50919050565b601f82111561047b57600081815260208120601f850160051c810160208610156104585750805b601f850160051c820191505b8181101561047757828155600101610464565b5050505b505050565b815167ffffffffffffffff81111561049a5761049a6102da565b6104ae816104a884546103f7565b84610431565b602080601f8311600181146104e357600084156104cb5750858301515b600019600386901b1c1916600185901b178555610477565b600085815260208120601f198616915b82811015610512578886015182559484019460019091019084016104f3565b50858210156105305787850151600019600388901b60f8161c191681555b5050505050600190811b01905550565b818382376000910190815291905056fea264697066735822122029cdb80b67331cfb1327f4062ac69788c9e84321eafc25902ef5e712f6b0a65f64736f6c63430008130033",
    "sourcePath": "d:/Projects/solidity/simple-storage/contracts/SimpleStorage.sol",
    "compiler": {
        "name": "solc",
        "version": "0.8.19+commit.7dd6d404"
    },
    "functionHashes": {
        "addPerson(string,uint256)": "6f760f41",
        "getValue()": "20965255",
        "nameToFavoriteNumber(string)": "8bab8dd5",
        "people(uint256)": "9e7a13ad",
        "store(uint256)": "6057361d"
    },
    "gasEstimates": {
        "creation": {
            "codeDepositCost": "282800",
            "executionCost": "324",
            "totalCost": "283124"
        },
        "external": {
            "addPerson(string,uint256)": "infinite",
            "getValue()": "2248",
            "nameToFavoriteNumber(string)": "infinite",
            "people(uint256)": "infinite",
            "store(uint256)": "22312"
        }
    }
}